:100000000C9459010C9476010C9476010C94260AF8
:100010000C944A0A0C9476010C9476010C947601A7
:100020000C9476010C9476010C94150B0C944F0BE8
:100030000C9476010C9476010C9476010C94760164
:100040000C9476010C946E0A0C9476010C94760153
:100050000C9476010C9476010C9476010C94760144
:100060000C9476010C9476010C9476010C94760134
:100070000C9476010C9476010C9476010C94760124
:100080000C9476010C9476010C9476010C94760114
:100090000C9476010C9476010C9476010C94760104
:1000A0000C9476010C9476010C947601000100000A
:1000B000E0001200020000F20043000300003501DE
:1000C0000401030904390114020309044F01160352
:1000D00003090467010C0001C11201803601813659
:1000E0001201000202000010C0167A040001010291
:1000F000030109024300020100C0320904000001AB
:10010000020201000524001001052401010104245C
:1001100002060524060001070582031000400904B9
:100120000100020A00000007050302400000070565
:10013000840240000004030904140359006F007591
:1001400000720020004E0061006D00650000001686
:1001500003550053004200200053006500720069FF
:100160000061006C0000000C0331003200330034E9
:1001700000350000006E616E00696E6600494E46F3
:10018000494E4954594E414E000020410000C8429A
:1001900000401C4620BCBE4CCA1B0E5AAEC59D7406
:1001A000CDCCCC3D0AD7233C17B7D13877CC2B32F6
:1001B0009595E6241FB14F0A00407A10F35A00A02B
:1001C000724E18090010A5D4E80000E87648170020
:1001D00000E40B54020000CA9A3B000000E1F50560
:1001E000000080969800000040420F000000A086AA
:1001F00001000000102700000000E80300000000DC
:100200006400000000000A0000000000010000007F
:1002100000002C76D888DC674F0823DFC1DFAE5999
:10022000E1B1B796E5E3E453C63AE651997696E82C
:10023000E6C28426EB898C9B62ED407C6FFCEFBCB0
:100240009C9F40F2BAA56FA5F490055A2AF75C93DB
:100250006B6CF9676DC11BFCE0E40D47FEF520E611
:10026000B500D0ED902E0300943577050080841EF4
:10027000080000204E0A000000C80C333333330F4F
:10028000986E12831141EF8D2114893BE65516CFEC
:10029000FEE6DB18D1844B381BF77C1D901DA4BBF8
:1002A000E424203284725E228100C9F124ECA1E5AD
:1002B0003D2711241FBECFEFDAE0DEBFCDBF12E035
:1002C000A0E0B1E0E8EEFCE202C005900D92A83893
:1002D000B107D9F722E0A8E8B2E001C01D92A33E21
:1002E000B207E1F70E942E040C9472160C940000E1
:1002F000CF93DF93EC019093DE028093DD0284E2E2
:100300000E941102CE0188279F70892F806C0E9465
:100310000A028C2F0E940A02DF91CF910C94D60121
:1003200084E20E94110280E40E940A020E94D60127
:1003300080E090E00C9478010895CF93DF93C82F6C
:1003400080ED0E941102C37020E2C29FC0011124FF
:1003500088680E940A020E94D6018FE795EB21E08F
:10036000815090402040E1F700C0000081ED0E94E4
:1003700011020E940202D82F80E0C82F0E94EE01D5
:10038000C82BCE01DF91CF9108958AB18C7F8AB9B5
:100390008BB18C7F8BB91092B90082E08093B8004A
:1003A00084E08093BC0010928802089584E98093D1
:1003B000BC008091BC0084FDFCCF08958FEF90E0DD
:1003C00008C0019731F41092BC0081E0809388024C
:1003D00008952091BC0027FFF4CF0895CF93DF93B9
:1003E0001F92CDB7DEB784E88093BC000E94DE0187
:1003F0008091BB0089830E94D60189810F90DF9193
:10040000CF91089584EC8093BC000E94DE0180911E
:10041000BB0008958093BB0084E88093BC000C94DB
:10042000DE010F931F93CF93DF931F92CDB7DEB7FB
:100430000CEB10E094EAF801908389830E94DE01BE
:1004400089818093BB0084E8F80180830F90DF915D
:10045000CF911F910F910C94DE01CF93DF931F92E8
:10046000CDB7DEB78983898183FF02C0469A01C078
:100470004698898182FF02C02E9A01C02E988981F8
:1004800081FF02C02D9A01C02D98898180FF02C092
:100490002C9A01C02C9882E08A95F1F700C05F9AEF
:1004A00082E08A95F1F700C05F9882E08A95F1F7C3
:1004B00000C00F90DF91CF910895CF93C82F5E9A1F
:1004C00082958F700E942D028C2F8F700E942D02BA
:1004D00085E88A95F1F700008091DF028F5F8093B5
:1004E000DF02CF910895CF93C82F5E9882958F70C9
:1004F0000E942D028C2F8F700E942D0285E88A9514
:10050000F1F70000CF910895CF93DF93C82FD62F36
:10051000613011F4806803C0623019F4806C0E946D
:100520007302C093DF02D093E002DF91CF91089570
:100530008A3051F48091E002813011F462E001C010
:1005400061E08091DF0205C08D3031F46091E002FE
:1005500080E00E9484020DC08C3049F403C080E228
:100560000E945D028091DF028830C8F302C00E94C1
:100570005D0280E090E0089584B1806784B93E9A7E
:1005800085B18F7885B946988AB1806C8AB95F98B1
:100590005E982FEF89EF90E0215080409040E1F786
:1005A00000C0000081E00E9473028FE79CE0019789
:1005B000F1F700C0000088E20E9473028CE00E9404
:1005C000730261E080E00C9484024B9B02C020E83F
:1005D00001C021E84A9B226080918E02811101C0F6
:1005E0006CC080918E02281709F469C080918E0238
:1005F000803861F4213821F480918D0281600BC034
:10060000223821F480918D02826005C0233831F4B4
:1006100080918D02806180938D024FC0203809F057
:100620004CC080918E02823821F480918D028460CA
:1006300007C080918E02813829F480918D028860F4
:1006400080938D0280918D0280FF08C080918D0281
:1006500082FD10C080918D0284FD0CC080918D02BE
:1006600082FF0BC080918D0280FD04C080918D02BD
:1006700084FF03C081E090E01AC080918D0281FF69
:1006800008C080918D0283FD10C080918D0284FD91
:100690000CC080918D0283FF0EC080918D0281FD80
:1006A00004C080918D0284FF06C08FEF9FEF90936E
:1006B0008C0280938B0210928D0220938E020895FB
:1006C0000F931F93CF93DF936091A1027091A202C9
:1006D0008091A3029091A4020E94AC0D20E030E032
:1006E00040E85EE30E94920E9F938F937F936F93F7
:1006F00083E291E09F938F93CEE0D1E0DF93CF939D
:100700000E9461156091D7027091D8027F936F9318
:10071000882777FD8095982F0E94AE0D2091930237
:100720003091940240919502509196020E94920E4F
:100730009F938F937F936F930AE211E01F930F9320
:10074000DF93CF930E9461156091D5027091D6021C
:100750007F936F93882777FD8095982F0E94AE0D29
:1007600020919702309198024091990250919A02FB
:100770000E94920E9F938F937F936F931F930F937B
:10078000DF93CF930E9461156091AA027091AB0232
:100790007F936F93882777FD8095982F0E94AE0DE9
:1007A00020919B0230919C0240919D0250919E02AB
:1007B0000E94920E9F938F937F936F9385E391E0B6
:1007C0009F938F93DF93CF930E9461158DB79EB750
:1007D00086960FB6F8949EBF0FBE8DBFDF91CF9166
:1007E0001F910F910895CF93C82F0E94C50ACA3058
:1007F00011F40E94050B80E090E0CF910895CF9214
:10080000DF92EF92FF92CF93DF93D82FC4E1C12CF8
:10081000D12C76018FE79EE30197F1F700C000002D
:100820008D2F0E949D01C80ED91EE11CF11CC150E4
:1008300089F7C701B601665F7F4F8F4F9F4F24E155
:1008400030E040E050E00E947712B901CA01DF9128
:10085000CF91FF90EF90DF90CF900895CF93DF93EB
:1008600000D0CDB7DEB784B7877F84BF88E10FB6ED
:10087000F89480936000109260000FBE91E080E8D1
:100880000FB6F89480936100909361000FBE539867
:1008900052985B9A5A9A6A98869A859A8E988D98F9
:1008A0008AE08093810082E19AE7909389008093A7
:1008B000880080916F00826080936F0080E5809354
:1008C00069008CE08DBB0E94BC0260E071E081E4B5
:1008D00091E00E949F150E94870A0E94C5010E9414
:1008E00090010E949C0140E150E060E070E08FE8E0
:1008F00092E00E942616809191029091920297FFB9
:1009000004C0109292021092910280918F029091F5
:10091000900297FF04C01092900210928F02C09034
:100920009302D0909402E0909502F090960220E01D
:1009300030E0A901C701B6010E940F0D181694F40A
:1009400020E030E040E85FE3C701B6010E945E0EA0
:10095000181644F0A7019601C701B6010E940F0DB9
:10096000882361F080EA9AE3ABEFB9E380939302C6
:1009700090939402A0939502B0939602C090970230
:10098000D0909802E0909902F0909A0220E030E036
:10099000A901C701B6010E940F0D181694F420E0BA
:1009A00030E040E85FE3C701B6010E945E0E181612
:1009B00044F0A7019601C701B6010E940F0D8823DC
:1009C00061F080E091E0A0E8BDE38093970290930E
:1009D0009802A0939902B0939A02C0909B02D09083
:1009E0009C02E0909D02F0909E0220E030E0A90180
:1009F000C701B6010E940F0D181694F420E030E0F4
:100A000040E85FE3C701B6010E945E0E181644F08D
:100A1000A7019601C701B6010E940F0D882361F05E
:100A200085EE9CE4AEE4BFE380939B0290939C022E
:100A3000A0939D02B0939E02789480E5282E81E0D9
:100A4000382E90E0E92E91E0F92E2CE8422E21E09C
:100A5000522E31EA632E31E0732E47E7C42E41E077
:100A6000D42E80918A02882309F48CC080E00E94F1
:100A70009D019093D6028093D50281E00E949D0152
:100A80002091D5023091D60240919102509192026C
:100A9000241B350B3093D6022093D50240918F0250
:100AA00050919002841B950B9093D8028093D702AB
:100AB00037FF04C01092D6021092D50297FF04C0EF
:100AC0001092D8021092D70226E636E646E65FE399
:100AD0006091AC027091AD028091AE029091AF0234
:100AE0000E94920E4B015C016091D5027091D6027A
:100AF000882777FD8095982F0E94AE0D20ED3CEC65
:100B00004CEC5DE30E94920E9B01AC01C501B40167
:100B10000E94AB0C6093AC027093AD028093AE0266
:100B20009093AF0226E636E646E65FE36091A502C3
:100B30007091A6028091A7029091A8020E94920E45
:100B40004B015C016091D7027091D802882777FD34
:100B50008095982F0E94AE0D20ED3CEC4CEC5DE3AF
:100B60000E94920E9B01AC01C501B4010E94AB0C26
:100B70006093A5027093A6028093A7029093A802A7
:100B800010928A0280918902893128F480919F0213
:100B9000882309F4F3C08091A002882349F1809151
:100BA0008902893128F18091A1029091A202A0913D
:100BB000A302B091A4020196A11DB11D8F3F2FEF9A
:100BC0009207A2072FE7B20748F48093A1029093FF
:100BD000A202A093A302B093A40208C01092A102A3
:100BE0001092A2021092A3021092A4020E9460032B
:100BF00080918902893118F48091890201C080E0D6
:100C00008093890261E080E00E9484022091930237
:100C10003091940240919502509196026091A50204
:100C20007091A6028091A7029091A8020E94920E54
:100C30009F938F937F936F933F922F92FF92EF92A8
:100C40000E94611561E087E00E94840260E071E02B
:100C500086E590E00E9473158091A9020FB6F89482
:100C6000DEBF0FBECDBF882341F190919F0291114D
:100C700003C081508093A90262E080E00E94840258
:100C80006091AA027091AB02882777FD8095982F1A
:100C90000E94AE0D20919B0230919C0240919D02DA
:100CA00050919E020E94920E9F938F937F936F9319
:100CB00086E591E09F938F931CC062E080E00E94E4
:100CC00084022091970230919802409199025091AC
:100CD0009A026091AC027091AD028091AE02909147
:100CE000AF020E94920E9F938F937F936F933F92D8
:100CF0002F92FF92EF920E9461150FB6F894DEBF1B
:100D00000FBECDBF62E086E00E94840260E071E029
:100D10008DE591E00E949F1580919F02811116C080
:100D20008091B0029091B102813491053CF08054E1
:100D300091099093B1028093B0020AC01816190667
:100D40003CF41092B1021092B00202C010929F02C5
:100D50008091B20287FF12C08091B202883820F4DD
:100D60008F5F8093B2020AC030E43093B20281E018
:100D70009091B302911180E08093B3028091B3020D
:100D8000882311F08E9A01C08E986091AA0270910A
:100D9000AB02882777FD8095982F0E94AE0D209199
:100DA0009B0230919C0240919D0250919E020E94B4
:100DB000920E5B018C012091970230919802409134
:100DC000990250919A026091AC027091AD028091AB
:100DD000AE029091AF020E94920E2A2D3B2D402F21
:100DE000512F0E94AA0C0E947B0D77FF03C07195C2
:100DF00061957109882777FD8095982F0E94AE0D27
:100E000020E030E048EC52E40E94920E2A2D3B2D67
:100E1000402F512F0E94130D20E030E040E251E4BA
:100E20000E945E0E181614F48D9A01C08D980E94CF
:100E3000A00A009739F08D30910521F08A30910594
:100E400009F06DC21091B402E12FF0E0EB54FD4FB8
:100E5000108260E671E085EB92E00E944D150097EC
:100E600061F481E08093A0021092A1021092A2028C
:100E70001092A3021092A4024FC266E671E085EBC5
:100E800092E00E944D15009719F41092A00244C2FE
:100E90006BE671E085EB92E00E944D15009719F426
:100EA0000E94600339C262E771E085EB92E00E9424
:100EB0004D15009709F053C0809192028F93809155
:100EC00091028F93DF92CF920EE011E01F930F9368
:100ED0000E946115809190028F9380918F028F9371
:100EE0005F924F921F930F930E946115809196021B
:100EF0008F93809195028F93809194028F9380912C
:100F000093028F937F926F921F930F930E946115AC
:100F100080919A028F93809199028F938091980289
:100F20008F93809197028F9387EB91E09F938F939C
:100F30001F930F930E94611580919E028F93809161
:100F40009D028F9380919C028F9380919B028F933F
:100F500080ED91E09F938F931F930F9392C144E094
:100F600050E069EE71E085EB92E00E944015009739
:100F7000D1F41530C0F0BE016F5F7F4F89EB92E076
:100F80000E94EC1229813A81295B324009F4B7C1F1
:100F900020919B0230919C0240919D0250919E02B3
:100FA0000E94130D19C046E050E06CE072E085EB42
:100FB00092E00E944015009709F51730F8F0BE0145
:100FC0006F5F7F4F8BEB92E00E94EC1229813A8198
:100FD0002B5B324009F493C10E94620ECB01611574
:100FE00020E1720708F086C16093AA027093AB02F9
:100FF0000E94780184E08093A9028EC145E050E010
:1010000063E172E085EB92E00E944015009749F49D
:101010008AEB92E09F938F9389E192E09F938F9365
:101020005CC148E050E06EE172E085EB92E00E9426
:101030004015009769F48DEB92E00E9439149F935C
:101040008F937F936F9382EE91E09F938F9315C15F
:1010500067E272E085EB92E00E944D15009709F47B
:1010600093C049E050E061E372E085EB92E00E94BA
:101070004015009709F0A4C01A3008F4A1C0BE01C1
:101080006F5F7F4F8EEB92E00E94EC124B015C0190
:1010900089819A818E5B924009F431C120E030E071
:1010A000A901C501B4010E945E0E18160CF063C0C0
:1010B0006091DD027091DE026436710508F456C05D
:1010C00080E090E00E94AC0D9B01AC01C501B40131
:1010D0000E94130D60939B0270939C0280939D026B
:1010E00090939E0280E00E94FF030E94AE0D9B0140
:1010F000AC01C501B4010E94130D60939702709377
:1011000098028093990290939A0240E150E060E047
:1011100070E08FE892E00E94361680919A028F93D9
:10112000809199028F93809198028F93809197027A
:101130008F9387EB91E09F938F930EE011E01F93C5
:101140000F930E94611580919E028F9380919D0262
:101150008F9380919C028F9380919B028F9380ED5F
:1011600091E09F938F931F930F938BC06EE071E07C
:101170008BE392E0CFC020E030E0A901C501B401CB
:101180000E940F0D8111B6C080E090E00E947801AE
:1011900080E00E94FF03709392026093910240E10D
:1011A00050E060E070E08FE892E00E943616809197
:1011B00092028F93809191028F93DF92CF928DC094
:1011C0004AE050E063E772E085EB92E00E94401550
:1011D000009709F099C01B3008F496C0BE016F5FFC
:1011E0007F4F8FEB92E00E94EC124B015C018981F2
:1011F0009A818F5B924009F482C02DEC3CEC4CE06C
:1012000051E4C501B4010E940F0D87FF42C020E0E8
:1012100030E0A901C501B4010E945E0E1816CCF59C
:1012200080E090E00E94780181E00E94FF030E942C
:10123000AE0D9B01AC01C501B4010E94130D60937A
:10124000930270939402809395029093960240E1EA
:1012500050E060E070E08FE892E00E9436168091E6
:1012600096028F93809195028F93809194028F9331
:10127000809193028F937F926F928EE091E09F9383
:101280008F930E9461150FB6F894DEBF0FBECDBFDD
:1012900043C020E030E0A901C501B4010E940F0D58
:1012A000811128C080E090E00E94780181E00E94D6
:1012B000FF037093900260938F0240E150E060E082
:1012C00070E08FE892E00E943616809190028F9332
:1012D00080918F028F935F924F928EE091E09F9367
:1012E0008F930E9461150F900F900F900F900F90A9
:1012F0000F9012C06EE071E08EEE91E00BC06EE0D8
:1013000071E08DEF91E006C0112331F06EE071E0E5
:101310008EE792E00E949F151092B4020FC018163B
:10132000190664F49091B402E92FF0E0EB54FD4FFC
:1013300080839F3118F49F5F9093B40280918B0259
:1013400090918C02892B09F46FC081E080939F02F9
:101350008091B0029091B102009719F481E090E081
:1013600005C08F3F910509F02CF440969093B1028F
:101370008093B00280918B0290918C02181619060E
:1013800024F510928C0210928B028091B30281118D
:101390000EC08091AA029091AB022091B0023091D0
:1013A000B102820F931F9093AB028093AA028091A7
:1013B000AA029091AB02811590416CF18FEF9FE0F2
:1013C0009093AB028093AA0226C080918B029091E9
:1013D0008C0297FF29C010928C0210928B02809190
:1013E000B30281110EC08091AA029091AB022091AC
:1013F000B0023091B102821B930B9093AB028093A9
:10140000AA028091AA029091AB0297FF04C01092A9
:10141000AB021092AA028091AA029091AB020E94A4
:10142000780184E08093A90262990DC084E08093E2
:10143000A9028091B20286FD14CB8091B20280682D
:101440008093B2020ECB1092B2020BCB1F920F927E
:101450000FB60F9211242F933F934F935F936F9387
:101460007F938F939F93AF93BF93EF93FF930E94CC
:10147000E502FF91EF91BF91AF919F918F917F9185
:101480006F915F914F913F912F910F900FBE0F90F1
:101490001F9018951F920F920FB60F9211242F9341
:1014A0003F934F935F936F937F938F939F93AF93EC
:1014B000BF93EF93FF930E94E502FF91EF91BF91DD
:1014C000AF919F918F917F916F915F914F913F91DC
:1014D0002F910F900FBE0F901F9018951F920F9293
:1014E0000FB60F9211248F9381E080938A0280912E
:1014F00089028F5F809389028F910F900FBE0F90AA
:101500001F9018958091E80080FFFCCF089581E03E
:101510008093D70080EA8093D80082E189BD09B426
:1015200000FEFDCF80E98093D8001092E000109279
:10153000DA021092DB028CE08093E2007894089546
:101540008FB7F8949091DA02911101C00DC093E029
:101550009093E9002BE69091E80095FD09C092FF79
:1015600003C02093E800F7CF8FBF2FEF3FEF0BC0F2
:101570002091F1009091E80095FD03C09BE69093C7
:10158000E8008FBF30E0C90108959091DA0291110F
:1015900001C00EC09FB7F89424E02093E900209189
:1015A000DC02222349F02091E80025FD03C09FBF03
:1015B0008FEF08951092DC022091E400275E34E062
:1015C0004091E80045FD12C09FBF9091E400921346
:1015D00004C081E08093DC02EBCF9091DA02992382
:1015E00039F39FB7F8943093E900EACF8093F10084
:1015F0008091E80085FD03C08AE38093E80085E0E0
:101600008093D9029FBF80E008958FB7F89490919E
:10161000D902992341F094E09093E9009AE39093E2
:10162000E8001092D9028FBF08951F920F920FB653
:101630000F9211248F939F938091E1001092E1000B
:1016400083FF11C01092E90091E09093EB0010929B
:10165000EC0092E19093ED0098E09093F0001092EE
:10166000DA021092DB0282FF13C08091DA02882333
:1016700079F08091D902882359F081508093D90262
:10168000811106C084E08093E9008AE38093E8003A
:101690009F918F910F900FBE0F901F9018951F92E2
:1016A0000F920FB60F921124EF92FF920F931F9398
:1016B0002F933F934F935F936F937F938F939F935A
:1016C000AF93BF93EF93FF93CF93DF931F92CDB769
:1016D000DEB71092E9008091E80083FF20C190916D
:1016E000F1008091F1002091F1003091F100F32E92
:1016F000E12CE22A2091F1003091F100132F00E05B
:10170000022B6091F1007091F10022EF2093E8002C
:10171000863009F04DC046E08CEA90E0FC0125914E
:1017200034912E153F0509F007C0FC013296259132
:1017300034912017310711F0079615C0FC0134963B
:10174000459154919A01FC0136968491572F40E0BF
:10175000462B4F3F510519F010F04FEF50E048175E
:1017600028F4842F03C04150C9F6D9C07EEF909170
:10177000E800492F4570D9F392FDD4C0982F8131EC
:1017800008F090E1A901692F07C0FA014F5F5F4F90
:10179000E491E093F10061506111F7CF290F311D01
:1017A000891B7093E8008111E2CF903101F3BAC038
:1017B000853051F48EEF8093E8000E94820A68948D
:1017C000E7F8E092E300AEC0893061F59111A7C05F
:1017D000E092DA021092DB021092D9028EEF80932F
:1017E000E80041E086ED90E001C0C9014093E900C6
:1017F0009C012F5F3F4FFC0154915093EB00552308
:1018000061F0F90124912093EC009C012D5F3F4F82
:10181000FC01329684918093ED004F5F453029F7AB
:101820008EE178C0883051F4903809F078C00E9479
:10183000820A8091DA028093F10048C0813279F403
:10184000913A09F06CC00E94820AECE1F1E08191CA
:101850008093F10031E0E332F307C9F737C08032FB
:10186000A1F4913209F05BC08091E80082FFFCCFC7
:10187000ECE1F1E08091F100819381E0E332F8073F
:10188000C9F78BEF8093E80021C0823241F4913296
:1018900009F045C0E092DB020E94820A17C0811164
:1018A00019C099830E94820A9981923851F4009359
:1018B000E9008091EB0085FB882780F91092E90010
:1018C00001C080E08093F1001092F1008EEF8093D0
:1018D000E80028C0813011F0833009F59230F9F426
:1018E000EF28E9F40F771127902F91509430B8F436
:1018F0009EEF9093E8000093E900833009F40FC055
:1019000089E18093EB0081E090E0002E01C0880F18
:101910000A94EAF78093EA001092EA0003C081E299
:101920008093EB000F90DF91CF91FF91EF91BF91EA
:10193000AF919F918F917F916F915F914F913F9167
:101940002F911F910F91FF90EF900F900FBE0F906E
:101950001F9018955058BB27AA270ED075C166D185
:1019600030F06BD120F031F49F3F11F41EF45BC1D5
:101970000EF4E095E7FB51C1E92F77D180F3BA1758
:10198000620773078407950718F071F49EF58FC1FD
:101990000EF4E0950B2EBA2FA02D0B01B90190018A
:1019A0000C01CA01A0011124FF27591B99F0593FCE
:1019B00050F4503E68F11A16F040A22F232F342F16
:1019C0004427585FF3CF469537952795A795F04064
:1019D0005395C9F77EF41F16BA0B620B730B840B79
:1019E000BAF09150A1F0FF0FBB1F661F771F881F31
:1019F000C2F70EC0BA0F621F731F841F48F4879589
:101A000077956795B795F7959E3F08F0B3CF939577
:101A1000880F08F09927EE0F979587950895D9D0EC
:101A200008F481E008950CD00FC107D140F0FED03A
:101A300030F021F45F3F19F0F0C0511139C1F3C00B
:101A400014D198F39923C9F35523B1F3951B550B82
:101A5000BB27AA2762177307840738F09F5F5F4F81
:101A6000220F331F441FAA1FA9F333D00E2E3AF0C2
:101A7000E0E830D091505040E695001CCAF729D0DC
:101A8000FE2F27D0660F771F881FBB1F261737072B
:101A90004807AB07B0E809F0BB0B802DBF01FF275B
:101AA00093585F4F2AF09E3F510568F0B6C000C1C1
:101AB0005F3FECF3983EDCF3869577956795B79595
:101AC000F7959F5FC9F7880F911D9695879597F9B0
:101AD0000895E1E0660F771F881FBB1F6217730729
:101AE0008407BA0720F0621B730B840BBA0BEE1F3E
:101AF00088F7E095089504D06894B111D9C008958D
:101B0000BCD088F09F5790F0B92F9927B751A0F01B
:101B1000D1F0660F771F881F991F1AF0BA95C9F781
:101B200012C0B13081F0C3D0B1E00895C0C0672FBA
:101B3000782F8827B85F39F0B93FCCF38695779531
:101B40006795B395D9F73EF490958095709561951A
:101B50007F4F8F4F9F4F0895E89409C097FB3EF445
:101B600090958095709561957F4F8F4F9F4F9923EA
:101B7000A9F0F92F96E9BB279395F6958795779568
:101B80006795B795F111F8CFFAF4BB0F11F460FF28
:101B90001BC06F5F7F4F8F4F9F4F16C0882311F080
:101BA00096E911C0772321F09EE8872F762F05C094
:101BB000662371F096E8862F70E060E02AF09A952F
:101BC000660F771F881FDAF7880F9695879597F924
:101BD0000895990F0008550FAA0BE0E8FEEF1616BE
:101BE0001706E807F907C0F012161306E407F50711
:101BF00098F0621B730B840B950B39F40A2661F085
:101C0000232B242B252B21F408950A2609F4A14027
:101C1000A6958FEF811D811D089597F99F6780E834
:101C200070E060E008959FEF80EC089500240A942E
:101C30001616170618060906089500240A941216A7
:101C40001306140605060895092E0394000C11F4DA
:101C5000882352F0BB0F40F4BF2B11F460FF04C087
:101C60006F5F7F4F8F4F9F4F089557FD9058440FE0
:101C7000551F59F05F3F71F04795880F97FB991FEB
:101C800061F09F3F79F087950895121613061406A8
:101C9000551FF2CF4695F1DF08C016161706180635
:101CA000991FF1CF86957105610508940895E89410
:101CB000BB2766277727CB0197F908958ADF08F4B9
:101CC0008FEF0895DADF58F19E5758F19851A0F040
:101CD000E9F0983020F5092E9927660F771F881FA5
:101CE000991F0A94D1F712C0062E672F782F8827E4
:101CF000985F11F4000C07C0993FB4F3869577956F
:101D000067959395D9F7611D711D811D3EF49095DE
:101D10008095709561957F4F8F4F9F4F0895689480
:101D2000C7CFC5CF0BD090CF81DF28F086DF18F06A
:101D3000952309F072CF77CF1124BACF96DFA0F3A5
:101D4000959FD1F3950F50E0551F629FF001729F50
:101D5000BB27F00DB11D639FAA27F00DB11DAA1F6F
:101D6000649F6627B00DA11D661F829F2227B00DBC
:101D7000A11D621F739FB00DA11D621F839FA00D47
:101D8000611D221F749F3327A00D611D231F849F97
:101D9000600D211D822F762F6A2F11249F575040EE
:101DA0008AF0E1F088234AF0EE0FFF1FBB1F661F89
:101DB000771F881F91505040A9F79E3F510570F042
:101DC0002CCF76CF5F3FECF3983EDCF3869577958A
:101DD0006795B795F795E7959F5FC1F7FE2B880F3D
:101DE000911D9695879597F90895A2E1B0E0EBEFE4
:101DF000FEE00C9493127C011B016A01FC01178226
:101E00001682838181FD03C06BC3650105C08824F0
:101E10008394912C8C0E9D1EF7019381F10193FD0B
:101E2000859193FF81911F01882309F455C3853261
:101E300039F493FD859193FF81911F01853231F42F
:101E4000B70190E00E9473155601DFCF712C612C11
:101E500020E02032A8F48B3261F028F4803251F077
:101E6000833271F40BC08D3239F0803349F4216034
:101E700028C02260246025C0286023C0206121C0C2
:101E800027FD27C0382F30533A3078F426FF06C09C
:101E9000FAE07F9E300D1124732E13C04AE0649E39
:101EA000300D1124632E20620CC08E3221F426FDE9
:101EB00013C3206406C08C3611F4206802C0883633
:101EC00041F4F10193FD859193FF81911F018111EF
:101ED000C0CF982F9554933018F42061805E06C0CF
:101EE000982F9556933008F0A4C12F7E26FD02C08E
:101EF00016E0712EBFE35B2E5222853619F4F0E412
:101F00005F2A07C0863619F440E8542A02C07110CF
:101F10007A9457FE07C05BE3571548F0472C43946B
:101F200027E00DC087E0871530F0272D07C027E098
:101F3000ACE34A2E04C027E0F7E07F2E412C560187
:101F400094E0A90EB11CF6016081718182819381B8
:101F5000042DA4010E943D148C0149814C8740FF4F
:101F600002C043FF07C051FC08C052FE09C0E0E2B6
:101F7000DE2E07C07DE2D72E04C06BE2D62E01C054
:101F8000D12C8C858C70A1F1DD2011F084E001C092
:101F900083E0861510F0612C0BC0681A53FC08C052
:101FA000B70180E290E00E9473156A94C9F7F3CFFD
:101FB000DD2029F0B7018D2D90E00E9473155C851E
:101FC00053FD03C009E711E00CC005E711E009C0AB
:101FD00051108052B70190E00E9473150F5F1F4FA0
:101FE00002C080E15822F80184918111F1CF71C2C1
:101FF00057FE0EC0400E4C8544FF04C08A818133D9
:1020000009F44A9414144CF558E0541548F12CC0C6
:1020100056FC2AC0872D90E08017910744F00C3FB2
:102020008FEF180724F090E8592A01C07A9477209E
:1020300049F0E2E0F0E0EC0FFD1FE70DF11D8081BB
:102040008033A1F357FE10C0472C4394872D90E0B6
:102050000817190744F4701A07C04424439404C0B5
:1020600058E0452E01C0712C57FE07C0101611060E
:102070003CF498012F5F3F4F05C025E030E002C0DF
:1020800021E030E0DD2011F02F5F3F4F772031F06D
:10209000472D50E04F5F5F4F240F351F462D50E016
:1020A0002417350714F4621A01C0612C852D89703C
:1020B00049F406C0B70180E290E00E9473156A946B
:1020C0006110F8CFDD2029F0B7018D2D90E00E943E
:1020D000731553FC09C006C0B70180E390E00E946D
:1020E00073156A946110F8CF57FE56C0680117FF48
:1020F00002C0C12CD12C20E030E0A80144195109C4
:102100005E874D8728014C185D08480C591C872DA7
:1021100090E044275527481B590B588B4F875FEF9A
:10212000C516D50649F4B7018EE290E02A8B398BAB
:102130000E94731539892A890C151D0554F04D85A7
:102140005E854C155D052CF4F201E20FF31F8181D1
:1021500001C080E351E0C51AD1082F5F3F4F4F8582
:102160005889C416D5064CF0B70190E02A8B398BFC
:102170000E9473152A893989D2CFC016D10649F435
:102180009A81963328F4953321F45C8554FD01C07F
:1021900081E3B70190E04AC08A81813319F04C8510
:1021A0004F7E4C87B70190E00E947315711005C0F7
:1021B00054FE16C085E490E015C0B7018EE290E0B1
:1021C0000E94731542E0D42EF401ED0DF11DD3945D
:1021D000B701808190E00E9473157A94A9F7E8CF47
:1021E00085E690E0B7010E94731517FD06C0011542
:1021F000110541F45C8554FF05C011950195110945
:102200008DE201C08BE2B70190E00E94731580E37C
:1022100003C08F5F0A5011090A301105D4F7B701C6
:1022200090E00E947315B701C801C0960E94731513
:1022300050C1833631F0833781F0833509F05EC0B9
:1022400024C0560182E0A80EB11CF601808189836A
:10225000CC24C394D12C840114C05601F2E0AF0EFB
:10226000B11CF6010081118126FF03C0672D70E0CB
:1022700002C06FEF7FEFC8012A8B0E9456156C01D8
:102280002A899FE7592E522217C05601F2E0AF0E5D
:10229000B11CF6010081118126FF03C0672D70E09B
:1022A00002C06FEF7FEFC8012A8B0E9435156C01C9
:1022B0002A8980E8582E522A53FC1CC006C0B70158
:1022C00080E290E00E9473156A94862D90E0C81613
:1022D000D906A8F30FC0F80157FC859157FE8191EC
:1022E0008F01B70190E00E94731561106A94F1E0CC
:1022F000CF1AD108C114D10471F7EBC0843611F0A4
:10230000893651F5560127FF09C044E0A40EB11CDF
:10231000F60160817181828193810AC0F2E0AF0E83
:10232000B11CF60160817181882777FD8095982F17
:10233000122F1F7697FF08C0909580957095619534
:102340007F4F8F4F9F4F10682AE030E0A4010E941A
:10235000C815D82ED81840C0122F853721F41F7EFB
:102360002AE030E01FC0197F8F36A1F020F48835B5
:1023700009F0B2C00BC0803721F0883709F0ACC03B
:1023800001C0106114FF09C0146007C024FF08C019
:10239000166006C028E030E005C020E130E002C051
:1023A00020E132E0560117FF09C0F4E0AF0EB11C86
:1023B000F601608171818281938108C0F2E0AF0EE5
:1023C000B11CF6016081718180E090E0A4010E945F
:1023D000C815D82ED8181F7716FF0BC0212F2E7FB7
:1023E000D71450F414FF0AC012FD08C0212F2E7E0E
:1023F00005C00D2D212F03C00D2D01C0072D24FF79
:102400000CC0FE01ED0DF11D8081803311F4297E99
:1024100008C022FF05C00E5F04C0822F867809F035
:102420000F5F23FD14C020FF0FC07D2C061560F444
:10243000760C701A062D08C0B70180E290E02A8B56
:102440000E9473150F5F2A890615B0F304C00615A4
:1024500010F4601A01C0612C24FF12C0B70180E3A0
:1024600090E02A8B0E9473152A8922FF1EC021FF4B
:1024700003C088E590E002C088E790E0B7010CC097
:10248000822F867891F021FD02C080E201C08BE2AC
:1024900027FD8DE2B70190E00E94731506C0B701D9
:1024A00080E390E00E9473157A94D714C0F3DA9415
:1024B000F401ED0DF11DB701808190E00E947315CC
:1024C000D110F5CF06C0B70180E290E00E947315ED
:1024D0006A946110F8CF99CCF7012681378102C048
:1024E0002FEF3FEFC9016296E2E10C94AF12052E87
:1024F00097FB16F4009407D057FD0DD00E94CA1226
:1025000007FC09D07EF490958095709561957F4F7A
:102510008F4F9F4F089550954095309521953F4F8F
:102520004F4F5F4F08952F923F924F925F926F925D
:102530007F928F929F92AF92BF92CF92DF92EF9253
:10254000FF920F931F93CF93DF93CDB7DEB7CA1BD4
:10255000DB0B0FB6F894DEBF0FBECDBF09942A88FF
:10256000398848885F846E847D848C849B84AA84A7
:10257000B984C884DF80EE80FD800C811B81AA8134
:10258000B981CE0FD11D0FB6F894DEBF0FBECDBFFF
:10259000ED010895A1E21A2EAA1BBB1BFD010DC07F
:1025A000AA1FBB1FEE1FFF1FA217B307E407F50703
:1025B00020F0A21BB30BE40BF50B661F771F881FDF
:1025C000991F1A9469F760957095809590959B0175
:1025D000AC01BD01CF010895A0E0B0E0E2EFF2E16F
:1025E0000C9499127B016115710521F0DB018C932C
:1025F00011969C93EC01C9908E018C2D90E00E9465
:102600001515892BC1F7BDE2CB1206C0FE01C190A2
:102610008F01DD24D39407C0FBE2CF1203C0DE019B
:10262000CD908D01D12CE801219743E050E06DE77A
:1026300071E0CE010E941D15892BC9F4E801229694
:1026400045E050E060E871E0CE010E941D15892B45
:1026500011F4E8012796E114F10419F0F701D18390
:10266000C083812C912C90E8D110F3C0F7C043E0D7
:1026700050E065E871E0CE010E941D15892B51F4F0
:10268000E114F10409F4E7C00E5F1F4FD7010D9369
:102690001C93E1C060E070E0CB01C0E0D0E0EC2D25
:1026A000E053EA3020F5FD2DF2602D2D2870D2FE8A
:1026B00004C0211122C0219620C021112197A5E03C
:1026C000B0E09B01AC010E945B16660F771F881F6C
:1026D000991F6E0F711D811D911D6839B9E97B0726
:1026E0008B07B9E19B0748F0FD2DF66006C0EE3F71
:1026F00049F4D3FC43C0FD2DF860D801CD908D0185
:10270000DF2ECDCFE53311F0E531C1F5F801A08121
:10271000AD3219F4F0E1DF2A07C0AB3229F00F5FC8
:102720001F4F21E030E006C0F801A1810E5F1F4F6E
:1027300022E030E0A053AA3018F0021B130B1EC099
:10274000F80120E030E020384CE034075CF4A901C7
:10275000440F551F440F551F240F351F220F331FE1
:102760002A0F311DA191A0538F01AA3060F3D4FE2E
:1027700003C0319521953109C20FD31FD1FE08C086
:10278000E114F10429F001501109D7010D931C93B4
:102790000E94AC0D2D2D2370233019F04B015C01EC
:1027A00005C0DC01CB01B0584C015D0120E030E0F8
:1027B000A901682D792D8A2D9B2D0E940F0D88234C
:1027C00009F444C0D7FF06C0D195C195D10904EBE7
:1027D00011E002C00CE911E06801B8E1CB1AD108A0
:1027E00090E2E92EF12C13C0F80185919591A59105
:1027F000B491282F392F4A2F5B2F682D792D8A2DE0
:102800009B2D0E94920E4B015C01CE19DF09CE1563
:10281000DF0554F704501109F594E7940C151D05D4
:10282000B1F7B401C501282F220F292F221F2F3FF6
:1028300039F020E030E0A9010E940F0D811106C09F
:1028400082E290E09093E2028093E1029A2D8B2D38
:1028500006C08FEF04C0812C912C90EC8FE79C0177
:10286000682D792D832F922FCDB7DEB7ECE00C9435
:10287000B512662777270C94EC12283008F027E071
:102880003327DA01990F311D87FD916000966105AC
:10289000710539F432602E5F3D9330E32A95E1F7FC
:1028A00008959F3F30F080387105610509F03C5F65
:1028B0003C5F3D93913008F08068911DDF93CF938A
:1028C0001F930F93FF92EF92192F987F9695E92F00
:1028D00096959695E90FFF27EE5EFD4F99273327D2
:1028E000EE24FF24A701E70105900894079428F43B
:1028F000360FE71EF81E491F511D660F771F881FF0
:10290000991F0694A1F70590079428F4E70EF81E86
:10291000491F561FC11D770F881F991F661F0694F8
:10292000A1F70590079428F4F80E491F561FC71FFA
:10293000D11D880F991F661F771F0694A1F7059078
:10294000079420F4490F561FC71FD81F990F661F01
:10295000771F881F0694A9F784911095177041F08E
:10296000D695C79557954795F794E7941A95C1F76B
:10297000E8EBF1E06894159015913591659195918A
:1029800005907FE27395E118F10A430B560BC90BD2
:10299000D009C0F7E10CF11E431F561FC91FD01DFF
:1029A0007EF4703311F48A95E6CFE894015030F04C
:1029B000080F0AF40027021708F4202F2395022F8E
:1029C0007A3328F079E37D932A95E9F710C07D9357
:1029D0002A9589F6069497956795379517951794D4
:1029E000E118F10A430B560BC90BD00998F0239557
:1029F0007E9173957A3308F070E37C932013B8F7D7
:102A00007E9170617D9330F0839571E37D9370E3E7
:102A10002A95E1F71124EF90FF900F911F91CF912C
:102A2000DF91992787FD90950895911141C18032DA
:102A300019F089508550D0F70895FB01DC01415011
:102A4000504088F08D9181341CF08B350CF4805E01
:102A5000659161341CF06B350CF4605E861B61116E
:102A600071F3990B0895881BFCCFFC010590615010
:102A700070400110D8F7809590958E0F9F1F089594
:102A8000FB01DC0104C08D910190801921F44150BB
:102A90005040C8F7881B990B0895FB01DC018D910C
:102AA000019080190110D9F3990B0895FC01615030
:102AB000704001900110D8F7809590958E0F9F1F60
:102AC0000895A0E0B0E0E7E6F5E10C94A312CE0192
:102AD0000996AC016F8178858D819E810E94F50EEB
:102AE000E2E00C94BF120F931F93CF93DF938C01FE
:102AF000EB018B8181FD03C00FEF1FEF1AC082FF36
:102B00000DC02E813F818C819D812817390764F487
:102B1000E881F9810193F983E88306C0E885F985A6
:102B2000802F0995892B41F78E819F8101969F8384
:102B30008E83C801DF91CF911F910F910895EF927D
:102B4000FF920F931F93CF93DF937C018B01DB01E7
:102B500013968C9181FF14C0C0E0D0E00BC0D80167
:102B60001896ED91FC911997B8010995892B11F0F0
:102B7000CFEFDFEFF70181917F018111F0CF02C02C
:102B8000CFEFDFEFCE01CDB7DEB7E6E00C94BB129E
:102B9000FA01AA27283051F1203181F1E8946F938E
:102BA0006E7F6E5F7F4F8F4F9F4FAF4FB1E03ED034
:102BB000B4E03CD0670F781F891F9A1FA11D680FD2
:102BC000791F8A1F911DA11D6A0F711D811D911D05
:102BD000A11D20D009F468943F912AE0269F11247A
:102BE0003019305D3193DEF6CF010895462F4770DE
:102BF000405D4193B3E00FD0C9F7F6CF462F4F7039
:102C0000405D4A3318F0495D31FD4052419302D096
:102C1000A9F7EACFB4E0A69597958795779567953C
:102C2000BA95C9F700976105710508959B01AC013C
:102C30000A2E06945795479537952795BA95C9F763
:102C4000620F731F841F951FA01D0895DC01CB0127
:102C5000FC01F999FECF06C0F2BDE1BDF89A3196AC
:102C600000B40D9241505040B8F70895DC01A40F14
:102C7000B51F4150504048F0CB01840F951F2E9155
:102C80000E94471641505040D0F70895262FF999D9
:102C9000FECF92BD81BDF89A019700B4021639F0BB
:102CA0001FBA20BD0FB6F894FA9AF99A0FBE08958C
:102CB0009927882708950E946616A59F900DB49FB6
:102CC000900DA49F800D911D11240895A29FB00125
:102CD000B39FC001A39F01D0B29F700D811D11242D
:082CE000911D0895F894FFCF47
:102CE8000000000200000000980200000000000040
:102CF800000200000000F3030000000000E10000F3
:102D0800000008252E32662C0900252E36662C096F
:102D180025642C0900252E36662C0925642C0D0AFD
:102D28000048656C6C6F0C0D0A576F726C640C0070
:102D3800252E34660C003E252E33660C006D4100AE
:102D480073746172740073746F700073696E676C6A
:102D58006500696E666F0063757272656E744F66A2
:102D680066736574203D2025640D0A00766F6C74C7
:102D78006167654F6666736574203D2025640D0A9A
:102D880000766F6C746167655363616C65203D20E4
:102D9800252E38660D0A0063757272656E7441647B
:102DA800635363616C65203D20252E38660D0A004B
:102DB80063757272656E744461635363616C6520F8
:102DC8003D20252E38660D0A007365743A006F752C
:102DD80074206F662072616E67650D0A0073796EE4
:102DE800746178206572726F720D0A0073657431B0
:102DF800363A006563686F3A0025730D0A007465FA
:102E080073746E756D3A0063616C6930616D7073CF
:102E18000063616C69616D70733A006572726F72FC
:102E28003A206261642063757272656E74207365FE
:102E38007474696E6720666F7220706572666F724F
:102E48006D696E672063616C6962726174696F6E27
:102E58000D0A0063616C69766F6C74733A00756E65
:082E68006B6E6F776E0D0A001E
:00000001FF
