:107000000C9481380C949E380C949E380C949E38C5
:107010000C949E380C949E380C949E380C949E3898
:107020000C949E380C949E380C94F83B0C949E382B
:107030000C949E380C949E380C949E380C949E3878
:107040000C949E380C949E380C949E380C949E3868
:107050000C949E380C949E380C949E380C949E3858
:107060000C949E380C949E380C949E380C949E3848
:107070000C949E380C949E380C949E380C949E3838
:107080000C949E380C949E380C949E380C949E3828
:107090000C949E380C949E380C949E380C949E3818
:1070A0000C949E380C949E380C949E380E03550018
:1070B0005300420061007300700000001C03770061
:1070C000770077002E006600690073006300680097
:1070D0006C002E006400650000000403090409022E
:1070E00012000101008032090400000000000000CD
:1070F00012011001FF000008C016DC05200101028A
:10710000000111241FBECFEFDAE0DEBFCDBF11E0DA
:10711000A0E0B1E0ECE2FBE702C005900D92A630E2
:10712000B107D9F713E0A6E0B1E001C01D92A73185
:10713000B107E1F70E94A0380C94943D0C940038FC
:1071400084B7877F84BF88E10FB6F894809360008E
:10715000109260000FBE91E080E80FB6F894809323
:107160006100909361000FBE6A987298629B05C09F
:10717000E0910601F0910701099581E085BF82E069
:1071800085BF0E94DA3B789402C00E94753D8091D1
:1071900000018111FACF8091E00081608093E000CE
:1071A000F89481E085BF15BEE0910601F0910701DA
:1071B000099580E090E00895FF920F931F93CF937D
:1071C000DF93082F162F80910A01861710F4109173
:1071D0000A0180910A01811B80930A0180910A01B2
:1071E000FF24F3948111F12C80910801873038F449
:1071F000A02FB92F83E091E045E051E15DC0802FE1
:10720000EC010EC0699120910B0130910C01C90174
:10721000019690930C0180930B01C9010E94863D59
:107220008C2F801B811770F34CC020910B01309183
:107230000C012F773327232B51F4E0910B01F091B0
:107240000C0180935700E89507B600FCFDCFE09154
:107250000B01F0910C012D913D9109019093570084
:10726000E895112420910B0130910C012E5F3F4FC6
:1072700030930C0120930B0120910B0130910C01F4
:107280002F773327232B51F0FF20B1F02A2F201B1B
:10729000211790F020910901222371F0E0910B0158
:1072A000F0910C01329740935700E89507B600FC27
:1072B000FDCF50935700E8952A2F201B211708F483
:1072C000B4CF8F2DDF91CF911F910F91FF90089533
:1072D000EF92FF921F93CF93DF931F92CDB7DEB74C
:1072E000182F80910A01861710F460910A012091ED
:1072F0000A01261B20930A01E12EF92E23C080915A
:107300000801873058F080910B0190910C0169833E
:107310000E947E3DD7018C93698107C0E0910B01EB
:10732000F0910C01E491D701EC93BFEFEB1AFB0A4B
:1073300020910B0130910C012F5F3F4F30930C01D6
:1073400020930B018E2D811B8617C8F2862F0F907C
:10735000DF91CF911F91FF90EF9008950F931F93AE
:10736000CF93DF9380910F03982F9076903409F09C
:107370007AC0803C41F0803431F0DF91CF911F9191
:107380000F910C947D3B20911003233089F4E09100
:10739000130380911103803331F4E370F0E0EF5F69
:1073A000FE4F808101C080E08093100164E020C026
:1073B000253009F41AC0822F84508630B0F48091B1
:1073C00011039091120390930C0180930B012930CB
:1073D00009F40BC08091150380930A018091140376
:1073E0008270809309016FEF03C010920D0161E07C
:1073F0008091E800877F8093E80080910F0387FFEA
:1074000018C08091E80080FFFCCF6F3F39F4609195
:1074100015038DE091E00E946839682F70E08DE0DF
:1074200091E00E946C3A8091E8008B7F8093E800A5
:107430001AC06F3F09F0A1CF9091F3008091F20044
:10744000192F00E0E801C82BB9F3BE0177278DE0C2
:1074500091E00E94C93A6C2F8DE091E00E94DC38E7
:10746000882351F38ACFDF91CF911F910F91089517
:107470009130F9F0923011F1933029F5811107C064
:10748000EAEDF0E7E491F0E08AED90E720C081308A
:1074900039F4ECEBF0E7E491F0E08CEB90E717C007
:1074A000823089F4ECEAF0E7E491F0E08CEA90E7CE
:1074B0000EC0E2E1F0E080EF90E709C0E2E1F0E029
:1074C0008EED90E704C0E0E0F0E080E090E0DA01CB
:1074D0008D939C93CF01089540911503509116030D
:1074E0004617570748F06115710539F44091E800D7
:1074F0004E7F4093E80001C0BA01FC0140E032C079
:107500008EB3882309F441C0853009F440C08091CE
:10751000E80083FD38C08091E80082FD2EC0809194
:10752000E80080FF1FC09091F3008091F200392F96
:1075300020E0A901482BCA0106C041914093F10007
:107540006150710901966115710519F08830910536
:10755000A0F341E0089709F040E08091E8008E7FB9
:107560008093E8006115710559F64111C9CF05C036
:107570008EB3882351F0853051F08091E80082FF6E
:10758000F7CF80E0089581E0089582E0089583E0D8
:1075900008956115710529F44091E8004B7F4093EF
:1075A000E800AC0127C08EB38823B1F1853071F1BA
:1075B0008091E80083FD2CC08091E80082FFF3CF2A
:1075C000FA0107C08091F1008193AF016150710908
:1075D00061F0AF019091F3008091F200392F20E02B
:1075E000D901A82BCD01892B69F78091E8008B7F09
:1075F0008093E80061157105B1F68091E80080FD87
:1076000009C08EB3882341F08530B9F783E008952F
:1076100081E0089580E0089582E008954091150387
:10762000509116034617570748F06115710539F454
:107630004091E8004E7F4093E80001C0BA01FC0190
:1076400040E033C08EB3882309F442C0853009F48A
:1076500041C08091E80083FD39C08091E80082FD3F
:107660002FC08091E80080FF20C09091F3008091AE
:10767000F200392F20E0A901482BCA0107C044912C
:107680004093F100319661507109019661157105C1
:1076900019F08830910598F341E0089709F040E02F
:1076A0008091E8008E7F8093E8006115710551F6A6
:1076B0004111C8CF05C08EB3882351F0853051F0F9
:1076C0008091E80082FFF7CF80E0089581E008957F
:1076D00082E0089583E00895EBEEF0E08081816020
:1076E0008083EDEEF0E010826093EC0040838091A7
:1076F000EE00881F8827881F089580910F0387FD5B
:1077000005C08091E80080FF0DC010C08091E800A6
:1077100082FD04C08EB38111F9CF08958091E800F5
:107720008B7F07C08EB38111ECCF08958091E80064
:107730008E7F8093E80008950F931F93CF93DF937C
:107740000E94EB3B0E94F33BC8EDD0E088818F772D
:10775000888388818068888388818F7D888319BC2D
:107760001EBA10920D0300EE10E0F80180818460D3
:10777000808388818160888342E060E080E00E94AD
:107780006C3BE1EEF0E080818E7F8083E2EEF0E002
:10779000808181608083808188608083F80180811E
:1077A0008E7F8083888180618883DF91CF911F9154
:1077B0000F910895E8EDF0E080818F7E8083E7ED02
:1077C000F0E080818160808384E082BF81E08093EB
:1077D0000E030C949C3BE8EDF0E080818E7F80836B
:1077E0001092E20008951092DA001092E1000895DC
:1077F0001F920F920FB60F9211242F933F934F9326
:107800005F936F937F938F939F93AF93BF93EF9308
:10781000FF938091DA0080FF1DC08091D80080FF27
:1078200019C08091DA008E7F8093DA008091D900B0
:1078300080FF0CC080E189BD82E189BD09B400FEF2
:10784000FDCF81E08EBB0E94743D04C019BC1EBAFE
:107850000E94743D8091E10080FF18C08091E20099
:1078600080FF14C08091E2008E7F8093E2008091BF
:10787000E20080618093E2008091D8008062809372
:10788000D80019BC85E08EBB0E94743D8091E10058
:1078900084FF2DC08091E20084FF29C080E189BD72
:1078A00082E189BD09B400FEFDCF8091D8008F7DB3
:1078B0008093D8008091E1008F7E8093E1008091D9
:1078C000E2008F7E8093E2008091E20081608093ED
:1078D000E20080910D03811104C08091E30087FFD5
:1078E00002C084E001C081E08EBB0E94743D8091A3
:1078F000E10083FF23C08091E20083FF1FC08091DD
:10790000E100877F8093E10082E08EBB10920D033F
:107910008091E1008E7F8093E1008091E2008E7F74
:107920008093E2008091E20080618093E20042E077
:1079300060E080E00E946C3B0E94743DFF91EF91FB
:10794000BF91AF919F918F917F916F915F914F9177
:107950003F912F910F900FBE0F901F9018951F937E
:10796000CF93DF9300D0CDB7DEB7EFE0F3E08091A7
:10797000F100819383E0E731F807C9F70E94AE393F
:107980008091E80083FF9CC080910F0390911003C9
:10799000963009F443C030F4992359F0953009F03A
:1079A0008FC016C0983009F45BC0993009F088C0C8
:1079B0006AC0803819F0823809F082C08091E800EE
:1079C000877F8093E8001092F1001092F10053C07D
:1079D000811176C080911103909112038F779927BE
:1079E000182F9091E3009078982B9093E30080916A
:1079F000E800877F8093E8000E947D3B8091E8004B
:107A000080FFFCCF8091E30080688093E300112326
:107A100011F083E001C082E08EBB52C080588230FA
:107A200008F04EC0AE014F5F5F4F6091130380912D
:107A30001103909112030E94383A009709F440C054
:107A40002091E800277F2093E800BC0189819A817A
:107A50000E940E3B8091E8008B7F8093E80030C04D
:107A6000803871F58091E800877F8093E8008091ED
:107A70000D038093F1008091E8008E7F8093E800F1
:107A80000E947D3B1DC081111BC09091110392305B
:107A9000B8F48091E800877F8093E80090930D030D
:107AA0000E947D3B80910D03811104C08091E30011
:107AB00087FF02C084E001C081E08EBB0E94743D5C
:107AC0008091E80083FF0AC08091E800877F80935F
:107AD000E8008091EB0080628093EB000F900F90A4
:107AE000DF91CF911F91089508958EB3882329F0D7
:107AF0008091E80083FD0C94AF3C0895F999FECF86
:107B000092BD81BDF89A992780B50895262FF999DD
:107B1000FECF1FBA92BD81BD20BD0FB6F894FA9A70
:0C7B2000F99A0FBE01960895F894FFCF6B
:067B2C00011E9587000018
:040000030000700089
:00000001FF
